:02000000FE2BD5
:10072E000130831685008601831285018601C82358
:10073E00823083129000DD308F008F0BA42B900B34
:10074E00A42BA92B1A30831291005E3090006E30CC
:10075E008F008F0BB02B900BB02B910BB02B00009A
:10076E0083128601033091008A30900055308F003D
:10077E008F0BBF2B900BBF2B910BBF2BC62B9E2B22
:10078E00002883128D018E010130831286000630FF
:10079E008C008C0BD02BD32B8312860106308C0051
:1007AE008C0BD72BDA2B0130831286000D308C0088
:1007BE008C0BDF2B0000831286010D308C008C0B0E
:1007CE00E62B0000013083128D0703188E0A0030CD
:1007DE008E070E08803ACF0083304F02031DF92B8F
:1007EE00E8300D02031CFC2BFD2BCB2B08008301E4
:0207FE00972B37
:08400000FF3FFF3FFF3FFF3FC0
:02400E00FF3F72
:00000001FF
