:02000000FE2BD5
:10066E00FE3083128600C7308C003D2B8C0B3C2B4A
:10067E00402B412BDF3083128600C7308C00472B76
:10068E008C0B462B4A2B4B2BEF3083128600C73038
:10069E008C00512B8C0B502B542B552BF730831277
:1006AE008600C7308C005B2B8C0B5A2B5E2B5F2B7E
:1006BE00FB3083128600C7308C00652B8C0B642BAD
:1006CE00682B692BFD3083128600C7308C006F2B90
:1006DE008C0B6E2B722B732B0800FE308312860050
:1006EE00C7308C007A2B8C0B792B7D2B7E2BFD301B
:1006FE0083128600C7308C00842B8C0B832B872BA8
:10070E00882BFB3083128600C7308C008E2B8C0B0F
:10071E008D2B912B922BF73083128600C7308C00D5
:10072E00982B8C0B972B9B2B9C2BEF3083128600D8
:10073E00C7308C00A22B8C0BA12BA52BA62BDF3048
:10074E0083128600C7308C00AC2B8C0BAB2BAF2BDF
:10075E00B02B080001308316850086018312050830
:10076E00031DBA2BBB2BBD2B7423B52B0503031D09
:10077E00C12BC22BC32BBB2B02300506031DC82B6E
:10078E00C92BCA2BBB2B03300506031DCF2BD02B39
:10079E00D12BBB2B04300506031DD62BD72BD82B04
:1007AE00BB2B05300506031DDD2BDE2BDF2BBB2BF4
:1007BE0006300506031DE42BE52BE62BBB2B07307D
:1007CE000506031DEB2BEC2BED2BBB2B0830050682
:1007DE00031DF22BF32BF42BBB2B09300506031D47
:1007EE00F92BFA2BFB2BBB2B3723B52B00288301C0
:0207FE00B12B1D
:08400000FF3FFF3FFF3FFF3FC0
:02400E00FF3F72
:00000001FF
