:10000000FE2B00308A000408840A8207003445343D
:10001000533449344D3445342034433455344C340E
:10002000483455344134433441344E3400342A3456
:100030002A342A342A342A34493450344E342A3467
:0A0040002A342A342A342A3400340A
:100344001030831686001C220130B2220C30B222F7
:10035400823083129600DD309500950BAF29960B01
:10036400AF29B42983128F018F0A01309500150833
:1003740090000130D52183128F018F0A113095002E
:10038400150890000230D521023083129700863080
:10039400960099309500950BCD29960BCD29970B96
:1003A400CD29B429002883129300F0290F08803E38
:1003B400910011089400062A0F08C03E910011080C
:1003C4009400062A0F08943E910011089400062A0E
:1003D4000F08D43E910011089400062A13089100D6
:1003E40092011208003A0319F829062A1108013A61
:1003F4000319D829033A0319DE29013A0319E42918
:10040400073A0319EA29062A1408B222122A100804
:1004140084000120562301308312910011089007B3
:100424008312100884000120003A031D1A2A1B2A93
:10043400092A0800831606128611061186108613EF
:1004440006108312061286110611861086130610F2
:100454000830900023308F008F0B2E2A900B2E2A09
:1004640008308312900023308F008F0B372A900BB3
:10047400372A08308312900023308F008F0B402AD4
:10048400900B402A08308312900023308F008F0B8A
:10049400492A900B492A08308312900023308F0098
:1004A4008F0B522A900B522A08308312900023306B
:1004B4008F008F0B5B2A900B5B2A83129101910AA8
:1004C4000612861106158614861306100612861166
:1004D40006158614861706106F2A702A00008312E8
:1004E400061286110615861486130610083090002D
:1004F40023308F008F0B7C2A900B7C2A01308312CF
:100504008F000F08910704301102031C8A2A8B2ADA
:10051400622A061286110615861086130610061224
:1005240086110615861086170610982A992A000047
:1005340083120612861106158610861306100830DB
:10054400900023308F008F0BA52A900BA52A28300A
:10055400B2221030B2220130B2220F30B22208008F
:1005640083128E00861306100E088C0007300310C9
:100574008C0CFF3E031DB92A0C0801398D008D0E29
:1005840006080D06EF390D0686000E088C000630AD
:1005940003108C0CFF3E031DCA2A0C0801398D0080
:1005A4008D0D8D0D8D0D06080D06F7390D0686008F
:1005B4000E088C00053003108C0CFF3E031DDD2A51
:1005C4000C0801398D008D0D8D0D06080D06FB39C3
:1005D4000D0686000E088C00043003108C0CFF3EC0
:1005E400031DEF2A0C0801398D008D0D06080D0638
:1005F400FD390D06860003308C008C0BFF2A831214
:100604008617042B052B0000831286130E088C001A
:10061400033003108C0CFF3E031D0B2B0C08013917
:100624008D008D0E06080D06EF390D0686000E08A6
:100634008C00023003108C0CFF3E031D1C2B0C0895
:1006440001398D008D0D8D0D8D0D06080D06F739C0
:100654000D0686000E088C0003100C0C01398D0069
:100664008D0D8D0D06080D06FB390D0686000E084E
:1006740001398C008C0D06080C06FD390C06860029
:1006840003308C008C0B442B83128617492B4A2B86
:1006940000008312861308308D0023308C008C0BED
:1006A400512B8D0B512B080083128E0086130614D8
:1006B4000E088C00073003108C0CFF3E031D5D2BCD
:1006C4000C0801398D008D0E06080D06EF390D0654
:1006D40086000E088C00063003108C0CFF3E031DB0
:1006E4006E2B0C0801398D008D0D8D0D8D0D0608B6
:1006F4000D06F7390D0686000E088C000530031030
:100704008C0CFF3E031D812B0C0801398D008D0DCF
:100714008D0D06080D06FB390D0686000E088C00AB
:10072400043003108C0CFF3E031D932B0C0801397D
:100734008D008D0D06080D06FD390D06860003306B
:100744008C008C0BA32B83128617A82BA92B0000DB
:10075400831286130E088C00033003108C0CFF3EAA
:10076400031DAF2B0C0801398D008D0E06080D06F4
:10077400EF390D0686000E088C00023003108C0C35
:10078400FF3E031DC02B0C0801398D008D0D8D0D0E
:100794008D0D06080D06F7390D0686000E088C002F
:1007A40003100C0C01398D008D0D8D0D06080D06FE
:1007B400FB390D0686000E0801398C008C0D0608E5
:1007C4000C06FD390C06860003308C008C0BE82BDC
:1007D40083128617ED2BEE2B000083128613F22B67
:1007E400F32B0000083083128D0023308C008C0B17
:0C07F400F92B8D0BF92B08008301A229C2
:08400000FF3FFF3FFF3FFF3FC0
:02400E00FF3F72
:00000001FF
