:10000000FE2B00308A000408840A820700342A3458
:100010004534533449344D3445342D3443344F340E
:100020004F344C342A3400342D342D342D342D34B7
:100030002D342D343E3400342D342D342D342D34D4
:100040002D343E34493400342D342D342D343E3497
:10005000493450344E3400342D342D342D342D3465
:080060003E34493450340034F1
:1001A20083129300EC280F08803E910011089400FE
:1001B20002290F08C03E91001108940002290F087D
:1001C200943E91001108940002290F08D43E910038
:1001D2001108940002291308910092011208003AB2
:1001E2000319F42802291108013A0319D428033A01
:1001F2000319DA28013A0319E028073A0319E62815
:1002020002291408AE210E2910088400012052226E
:1002120001308312910011089007831210088400A4
:100222000120003A031D1629172905290800831603
:100232000612861106118610861306108312061204
:10024200861106118610861306100830900023309E
:100252008F008F0B2A29900B2A29083083129000D5
:1002620023308F008F0B3329900B332908308312F0
:10027200900023308F008F0B3C29900B3C290830D3
:100282008312900023308F008F0B4529900B452954
:1002920008308312900023308F008F0B4E29900B71
:1002A2004E2908308312900023308F008F0B57297C
:1002B200900B572983129101910A06128611061595
:1002C20086148613061006128611061586148617E2
:1002D20006106B296C29000083120612861106157E
:1002E2008614861306100830900023308F008F0B7F
:1002F2007829900B7829013083128F000F0891071B
:1003020004301102031C862987295E2906128611F0
:10031200061586108613061006128611061586101B
:100322008617061094299529000083120612861159
:1003320006158610861306100830900023308F00B1
:100342008F0BA129900BA1292830AE211030AE21AC
:100352000130AE210F30AE21080083128E008613C9
:1003620006100E088C00073003108C0CFF3E031D94
:10037200B5290C0801398D008D0E06080D06EF39DE
:100382000D0686000E088C00063003108C0CFF3E12
:10039200031DC6290C0801398D008D0D8D0D8D0DA3
:1003A20006080D06F7390D0686000E088C0005308A
:1003B20003108C0CFF3E031DD9290C0801398D0056
:1003C2008D0D8D0D06080D06FB390D0686000E08F3
:1003D2008C00043003108C0CFF3E031DEB290C082B
:1003E20001398D008D0D06080D06FD390D068600BA
:1003F20003308C008C0BFB2983128617002A012AFA
:100402000000831286130E088C00033003108C0C3C
:10041200FF3E031D072A0C0801398D008D0E0608C8
:100422000D06EF390D0686000E088C00023003100F
:100432008C0CFF3E031D182A0C0801398D008D0D0E
:100442008D0D8D0D06080D06F7390D0686000E0876
:100452008C0003100C0C01398D008D0D8D0D0608DA
:100462000D06FB390D0686000E0801398C008C0D35
:1004720006080C06FD390C06860003308C008C0B36
:10048200402A83128617452A462A000083128613C1
:1004920008308D0023308C008C0B4D2A8D0B4D2A99
:1004A200080083128E00861306140E088C00073093
:1004B20003108C0CFF3E031D592A0C0801398D00D4
:1004C2008D0E06080D06EF390D0686000E088C000B
:1004D200063003108C0CFF3E031D6A2A0C080139FA
:1004E2008D008D0D8D0D8D0D06080D06F7390D064B
:1004F20086000E088C00053003108C0CFF3E031D95
:100502007D2A0C0801398D008D0D8D0D06080D0612
:10051200FB390D0686000E088C00043003108C0C8B
:10052200FF3E031D8F2A0C0801398D008D0D060830
:100532000D06FD390D06860003308C008C0B9F2AB8
:1005420083128617A42AA52A0000831286130E0896
:100552008C00033003108C0CFF3E031DAB2A0C08E9
:1005620001398D008D0E06080D06EF390D06860045
:100572000E088C00023003108C0CFF3E031DBC2AB7
:100582000C0801398D008D0D8D0D8D0D06080D069F
:10059200F7390D0686000E088C0003100C0C013989
:1005A2008D008D0D8D0D06080D06FB390D0686009A
:1005B2000E0801398C008C0D06080C06FD390C065C
:1005C200860003308C008C0BE42A83128617E92AFA
:1005D200EA2A000083128613EE2AEF2A000008306E
:1005E20083128D0023308C008C0BF52A8D0BF52A9B
:1005F200080010308316860018210130AE210C301D
:10060200AE21823083129600DD309500950B072BC8
:10061200960B072B0C2B02308312970004309600A6
:10062200BA309500950B132B960B132B970B132BAC
:10063200000083128F018F0A223095001508900066
:100642000130D12002308312970004309600BA3074
:100652009500950B2A2B960B2A2B970B2A2B000021
:1006620083128F018F0A2030950015089000013007
:10067200D12002308312970004309600BA309500E0
:10068200950B412B960B412B970B412B00008312AC
:100692008F018F0A1F309500150890000130D1207C
:1006A20002308312970004309600BA309500950B01
:1006B200582B960B582B970B582B000083128F0147
:1006C2008F0A1E309500150890000130D1200230AB
:1006D2008312970004309600BA309500950B6F2B69
:1006E200960B6F2B970B6F2B000083128F018F0AD3
:1006F20026309500150890000130D1200230831277
:10070200970004309600BA309500950B862B960B15
:10071200862B970B862B000083128F018F0A1630CF
:100722009500150890000130D12002308312970005
:1007320004309600BA309500950B9D2B960B9D2B9D
:10074200970B9D2B000083128F018F0A0E309500AC
:10075200150890000130D120023083129700043036
:100762009600BA309500950BB42B960BB42B970BD1
:10077200B42B000083128F018F0A013095001508F7
:1007820090000130D120023083129700043096008D
:10079200BA309500950BCB2B960BCB2B970BCB2B13
:1007A200000002308312970004309600BA309500A0
:1007B200950BD92B960BD92B970BD92B0000023016
:1007C2008312970004309600BA309500950BE72B00
:1007D200960BE72B970BE72B000002308312970052
:1007E20004309600BA309500950BF52B960BF52B3D
:0E07F200970BF52B00000C2B00288301FA2A30
:08400000FF3FFF3FFF3FFF3FC0
:02400E00FF3F72
:00000001FF
