:020000040000FA
:1000000083160F3085000030860083120301003014
:100010000502031930280130050203193328023084
:100020000502031936280330050203193928043064
:10003000050203193C280530050203193F28063044
:100040000502031942280730050203194528083024
:100050000502031948280930050203194B284E28C8
:10006000C03086000628F93086000628A4308600B5
:100070000628B0308600062899308600062892307F
:1000800086000628823086000628F830860006287A
:1000900080308600062890308600062800308600D2
:0400A000030106282A
:00000001FF
