:02000000FE2BD5
:1006740083128D018E010130831286000C308C00B0
:100684008C0B422B831286010C308C008C0B482B74
:10069400013083128D0703188E0A00308E070E086E
:1006A400803ACF00A7304F02031D5A2B10300D02A1
:1006B400031C5D2B5E2B3D2B080083128D018E01E4
:1006C4000130831286001C308C008C0B672B6A2B44
:1006D400831286011C308C008C0B6E2B712B013025
:1006E40083128D0703188E0A00308E070E08803A95
:1006F400CF0093304F02031D812B88300D02031C61
:10070400842B852B622B080083128D018E0101300E
:100714008312860006308C008C0B8E2B912B831257
:10072400860106308C008C0B952B982B013083129C
:100734008D0703188E0A00308E070E08803ACF000A
:10074400BA304F02031DA82B98300D02031CAB2BAB
:10075400AC2B892B08000130831685008601831297
:100764008501860183120508031DB92BBA2BBC2B06
:100774005F23B42B0503031DC02BC12BC22BBA2B43
:1007840002300506031DC72BC82BC92BBA2B033017
:100794000506031DCE2BCF2BD12B3A23B42B0430CB
:1007A4000506031DD62BD72BD82BCF2B05300506DA
:1007B400031DDD2BDE2BDF2BCF2B06300506031D9F
:1007C400E42BE52BE72B8623B42B07300506031D0A
:1007D400EC2BED2BEE2BE52B08300506031DF32B3C
:1007E400F42BF52BE52B09300506031DFA2BFB2B07
:0C07F400FC2BE52BB42B00288301AD2B5F
:08400000FF3FFF3FFF3FFF3FC0
:02400E00FF3F72
:00000001FF
