:02000000FE2BD5
:1005B000013083168500860183120508031DE12A98
:1005C000E22AE42A8601DC2A0503031DE82AE92A37
:1005D000EC2A01308600DC2A02300506031DF12AD0
:1005E000F22AF52A02308600DC2A03300506031DB4
:1005F000FA2AFB2AFE2A03308600DC2A043005068C
:10060000031D032B042B072B04308600DC2A053046
:100610000506031D0C2B0D2B102B05308600DC2A44
:1006200006300506031D152B162B192B06308600E8
:10063000DC2A07300506031D1E2B1F2B222B07303B
:100640008600DC2A08300506031D272B282B2B2BC0
:1006500010308600DC2A09300506031D302B312BB3
:10066000342B11308600DC2A0A300506031D392B95
:100670003A2B3D2B12308600DC2A0B300506031D79
:10068000422B432B462B13308600DC2A0C30050608
:10069000031D4B2B4C2B4F2B14308600DC2A0D30C6
:1006A0000506031D542B552B582B15308600DC2ACC
:1006B0000E300506031D5D2B5E2B612B1630860068
:1006C000DC2A0F300506031D662B672B6A2B1730BB
:1006D0008600DC2A10300506031D6F2B702B732B50
:1006E00020308600DC2A11300506031D782B792B7B
:1006F0007C2B21308600DC2A12300506031D812B5D
:10070000822B852B22308600DC2A13300506031D40
:100710008A2B8B2B8E2B23308600DC2A1430050687
:10072000031D932B942B972B24308600DC2A153045
:100730000506031D9C2B9D2BA02B25308600DC2A53
:1007400016300506031DA52BA62BA92B26308600E7
:10075000DC2A17300506031DAE2BAF2BB22B27303A
:100760008600DC2A18300506031DB72BB82BBB2BDF
:1007700030308600DC2A19300506031DC02BC12B42
:10078000C42B31308600DC2A1A300506031DC92B24
:10079000CA2BCD2B32308600DC2A1B300506031D08
:1007A000D22BD32BD62B33308600DC2A1C30050607
:1007B000031DDB2BDC2BDF2B34308600DC2A1D30C5
:1007C0000506031DE42BE52BE82B35308600DC2ADB
:1007D0001E300506031DED2BEE2BF12B3630860067
:1007E000DC2A1F300506031DF62BF72BFA2B3730BA
:1007F0008600DC2A88308600DC2A00288301D82A7B
:08400000FF3FFF3FFF3FFF3FC0
:02400E00FF3F72
:00000001FF
