:020000040000FA
:1000000083160F3085000030860083120301003014
:100010000502031930280130050203193328023084
:100020000502031936280330050203193928043064
:10003000050203193C280530050203193F28063044
:100040000502031942280730050203194528083024
:100050000502031948280930050203194B284E28C8
:10006000003086000628013086000628023086000F
:10007000062803308600062804308600062805304E
:1000800086000628063086000628073086000628E7
:1000900008308600062809308600062830308600A1
:0200A000062830
:00000001FF
